:100000000C945D000C9485000C9485000C94850084
:100010000C9485000C9485000C9485000C9485004C
:100020000C9485000C9485000C9485000C9485003C
:100030000C9485000C9485000C9485000C9485002C
:100040000C947B020C9485000C9449020C942302BE
:100050000C9485000C9485000C9485000C9485000C
:100060000C9485000C94850000000008000201003B
:100070000003040700000000000000000000000072
:10008000250028002B0000000000240027002A0083
:10009000040404040404040402020202020203032E
:1000A0000303030301020408102040800102040836
:1000B00010200102040810206F0411241FBECFEF8E
:1000C000D8E0DEBFCDBF11E0A0E0B1E0E6E9F9E0A5
:1000D00002C005900D92A631B107D9F721E0A6E143
:1000E000B1E001C01D92AC3BB207E1F710E0CDE5F5
:1000F000D0E004C02197FE010E94BE04CC35D10798
:10010000C9F70E94C5020C94C9040C94000090E049
:10011000FC01EC55FF4F2491FC01E057FF4F849107
:10012000882399F090E0880F991FFC01EA57FF4F50
:10013000A591B491FC01E458FF4F859194918FB73C
:10014000F894EC91E22BEC938FBF0895CF92DF925D
:10015000EF92FF920F931F93CF93DF936C017A017D
:100160008B01C0E0D0E0CE15DF0589F0D8016D919C
:100170008D01D601ED91FC910190F081E02DC60139
:100180000995892B11F47E0102C02196ECCFC7019D
:10019000DF91CF911F910F91FF90EF90DF90CF9063
:1001A0000895089580E090E00895FC01538D448DFA
:1001B000252F30E0842F90E0821B930B541710F012
:1001C000CF96089501970895FC01918D828D98171F
:1001D00061F0828DDF01A80FB11D5D968C91928D2B
:1001E0009F5F9F73928F90E008958FEF9FEF089528
:1001F000FC01918D828D981731F0828DE80FF11DF1
:10020000858D90E008958FEF9FEF0895FC01918D0B
:10021000228D892F90E0805C9F4F821B91098F7304
:10022000992708958FE191E00E94060121E0892B32
:1002300009F420E0822F0895FC01848DDF01A80FCE
:10024000B11DA35ABF4F2C91848D90E001968F73FE
:100250009927848FA689B7892C93A089B1898C911D
:1002600080648C93938D848D981306C00288F389E3
:10027000E02D80818F7D80830895EF92FF920F9310
:100280001F93CF93DF93EC0181E0888F9B8D8C8D42
:10029000981305C0E889F989808185FD24C0F62E70
:1002A0000B8D10E00F5F1F4F0F731127E02E8C8D09
:1002B000E8120CC00FB607FCFACFE889F9898081F3
:1002C00085FFF5CFCE010E941C01F1CF8B8DFE0181
:1002D000E80FF11DE35AFF4FF0820B8FEA89FB898B
:1002E0008081806207C0EE89FF896083E889F9898F
:1002F00080818064808381E090E0DF91CF911F91C5
:100300000F91FF90EF900895CF93DF93EC01888DCC
:100310008823C9F0EA89FB89808185FD05C0A88909
:10032000B9898C9186FD0FC00FB607FCF5CF80818F
:1003300085FFF2CFA889B9898C9185FFEDCFCE01D9
:100340000E941C01E7CFDF91CF91089580E090E0FB
:10035000892B29F00E94120181110C94000008954C
:1003600090E0FC01E859FF4F3491FC01EC55FF4F40
:100370002491FC01E057FF4FE491EE2309F43BC0C8
:10038000332339F1333091F038F43130A9F0323081
:1003900001F584B58F7D12C0373091F03830A1F06F
:1003A0003430B9F4809180008F7D03C0809180004B
:1003B0008F77809380000DC084B58F7784BD09C08E
:1003C0008091B0008F7703C08091B0008F7D8093C3
:1003D000B000F0E0EE0FFF1FE458FF4FA591B4917D
:1003E0008FB7F894EC91611103C020952E2301C0C2
:1003F0002E2B2C938FBF08953FB7F89480911B014B
:1004000090911C01A0911D01B0911E0126B5A89BE1
:1004100005C02F3F19F00196A11DB11D3FBFBA2F96
:10042000A92F982F8827820F911DA11DB11DBC01F6
:10043000CD0142E0660F771F881F991F4A95D1F7BB
:1004400008950E94C4041F920F920FB60F921124B8
:100450002F933F934F935F936F937F938F939F93CC
:10046000AF93BF93EF93FF938FE191E00E941C0144
:10047000FF91EF91BF91AF919F918F917F916F917C
:100480005F914F913F912F910F900FBE0F901F9052
:1004900018951F920F920FB60F9211242F938F93DE
:1004A0009F93EF93FF93E0912F01F09130018081B2
:1004B000E0913501F091360182FD12C0908180916A
:1004C00038018F5F8F7320913901821751F0E091CD
:1004D0003801F0E0E15EFE4F958F8093380101C056
:1004E0008081FF91EF919F918F912F910F900FBE7F
:1004F0000F901F9018951F920F920FB60F92112414
:100500002F933F938F939F93AF93BF938091170146
:1005100090911801A0911901B0911A013091160122
:1005200023E0230F2D3720F40196A11DB11D05C036
:1005300026E8230F0296A11DB11D2093160180937A
:10054000170190931801A0931901B0931A0180919B
:100550001B0190911C01A0911D01B0911E010196FB
:10056000A11DB11D80931B0190931C01A0931D013F
:10057000B0931E01BF91AF919F918F913F912F91A9
:100580000F900FBE0F901F901895CF93DF93CDB7AC
:10059000DEB7A1970FB6F894DEBF0FBECDBF78943B
:1005A00084B5826084BD84B5816084BD85B5826078
:1005B00085BD85B5816085BD80916E008160809329
:1005C0006E00109281008091810082608093810092
:1005D00080918100816080938100809180008160A2
:1005E000809380008091B10084608093B1008091FD
:1005F000B00081608093B00080917A008460809325
:100600007A0080917A00826080937A0080917A00EB
:10061000816080937A0080917A00806880937A006C
:100620001092C100E0912F01F091300182E08083AF
:10063000E0912B01F0912C011082E0912D01F091BD
:100640002E018FEC808310923701E0913301F091FD
:10065000340186E08083E0913101F09132018081A4
:1006600080618083E0913101F09132018081886066
:100670008083E0913101F091320180818068808334
:10068000E0913101F091320180818F7D808382E0A1
:100690000E94870083E00E94870084E00E94870018
:1006A00085E00E94870086E00E94870087E00E9424
:1006B000870088E00E9487009AE0892E912CA12C67
:1006C000B12C8FE191E00E94E400182F282F30E038
:1006D00040E050E019A2CE0181967C01CA01B90127
:1006E000A50194010E949C04605DF70162937F0163
:1006F000211531054105510589F7309761F00190C9
:100700000020E9F73197AF014E195F09B7018FE17A
:1007100091E00E94A60042E050E062E171E08FE1CA
:1007200091E00E94A6000E94FC012B013C0184EF95
:10073000C82EDD24D394E12CF12C0E94FC01DC01B5
:10074000CB0184199509A609B709883E9340A105F4
:10075000B10558F0F1E0CF1AD108E108F10828EE10
:10076000420E23E0521E611C711CC114D104E1042D
:10077000F10419F7111116C060E082E00E94B00187
:1007800060E083E00E94B00160E084E00E94B0017C
:1007900060E085E00E94B00160E086E00E94B00168
:1007A00060E063C0113011F461E04BC0123091F48D
:1007B00060E082E00E94B00160E083E00E94B0014E
:1007C00061E084E00E94B00160E085E00E94B00139
:1007D00060E013C01330B1F460E082E00E94B00129
:1007E00060E083E00E94B00160E084E00E94B0011C
:1007F00060E085E00E94B00161E086E00E94B00107
:1008000061E063C0143011F461E04BC0153071F445
:1008100060E082E00E94B00161E083E00E94B001EC
:1008200060E084E00E94B00160E047C0163031F41F
:1008300060E082E00E94B00161E023C01730D1F493
:1008400060E082E00E94B00160E083E00E94B001BD
:1008500060E084E00E94B00161E085E00E94B001A8
:1008600061E086E00E94B00161E087E00E94B00193
:1008700061E02FC0183091F460E082E00E94B00186
:1008800060E083E00E94B00160E084E00E94B0017B
:1008900060E085E00E94B00160E013C01930E1F42F
:1008A00060E082E00E94B00160E083E00E94B0015D
:1008B00060E084E00E94B00161E085E00E94B00148
:1008C00061E086E00E94B00160E087E00E94B00134
:1008D00060E088E00E94B0010E94A601F2CEEFE144
:1008E000F1E01382128288EE93E0A0E0B0E084830E
:1008F0009583A683B78384E091E09183808385EC20
:1009000090E09587848784EC90E09787868780ECD9
:1009100090E0918B808B81EC90E0938B828B82ECCA
:1009200090E0958B848B86EC90E0978B868B118E74
:10093000128E138E148E0895A1E21A2EAA1BBB1BD1
:10094000FD010DC0AA1FBB1FEE1FFF1FA217B3079B
:10095000E407F50720F0A21BB30BE40BF50B661FB1
:10096000771F881F991F1A9469F760957095809575
:1009700090959B01AC01BD01CF010895EE0FFF1FC3
:100980000590F491E02D099481E090E0F8940C94A6
:06099000C904F894FFCF3A
:10099600000000003D01A600D50084010601E40028
:0609A600F8000D0A00003C
:00000001FF
