:02000000632C6F
:100006007B15FB1F0D280130F300F201F101F00111
:08001600FA0DF20CFF300800A6
:08001E00FA1FF2130030080084
:0E002600F201F101F001F801F30100300800D1
:10003400FB14FB1F2428FF30F300F200F100F00052
:08004400FA0DF20CFF30080078
:10004C007B14FB1F3128F201FA1FFF30F200F10084
:0A005C00F000FA0DF20CFF3008006E
:06006600FB15FF3008004D
:10006C0083120313B30CB20CB313B30CB20CB31353
:10007C00B30CB20CB313B30CB20CB3133208F000C4
:10008C003308F1000130B202031CB3037008710491
:0C009C000319532800000000442808004D
:1000A800A1017208031D69287108F2007008F100A7
:1000B800F001A1157208031D69287108F200F10109
:1000C800A11121167208031977282108F302031DCC
:1000D800031C7B280310F21B7F28F00DF10DF20D95
:1000E800F30B6F287B280130FC0013208228023094
:0E00F800FC00032082280430FC000F200800CA
:10010600831203132230FC00F801F901FA01FB0106
:10011600FC030319B9280310FB0CFA0CF90CF80CB4
:10012600F30CF20CF10CF00C031C8B28FC030319E6
:10013600AB287408F80775080318750FF9077608D1
:100146000318760FFA0777080318770FFB078F282F
:100156007408F80775080318750FF9077608031869
:0E016600760FFA0777080318770FFB070800DB
:1001740083120313FB01FA01F901F801A001730DC5
:10018400F80D7408F8027508031C750FF902760857
:10019400031C760FFA027708031C770FFB02000199
:1001A400031C0130A002F30D0730FC00730DF80DA1
:1001B400F90DFA0DFB0DA00D7408731CF328F80259
:1001C4007508031C750FF9027608031C760FFA02F2
:1001D4007708031C770FFB020001031C0130A00207
:1001E4000429F80775080318750FF907760803182A
:1001F400760FFA0777080318770FFB070001031837
:100204000130A007F30DFC0BD828720DF80DF90D81
:10021400FA0DFB0DA00D7408731C2229F802750851
:10022400031C750FF9027608031C760FFA0277088F
:10023400031C770FFB020001031C0130A0023329C9
:10024400F80775080318750FF90776080318760F71
:10025400FA0777080318770FFB070001031801302A
:10026400A007F20D0730FC00720DF80DF90DFA0D20
:10027400FB0DA00D7408721C5129F8027508031CAB
:10028400750FF9027608031C760FFA027708031C2F
:10029400770FFB020001031C0130A0026229F8075A
:1002A40075080318750FF90776080318760FFA070F
:1002B40077080318770FFB07000103180130A00724
:1002C400F20DFC0B3629710DF80DF90DFA0DFB0D2D
:1002D400A00D7408721C8029F8027508031C750FA0
:1002E400F9027608031C760FFA027708031C770FCD
:1002F400FB020001031C0130A0029129F8077508D4
:100304000318750FF90776080318760FFA077708AC
:100314000318770FFB07000103180130A007F10D44
:100324000730FC00710DF80DF90DFA0DFB0DA00D51
:100334007408711CAF29F8027508031C750FF902C3
:100344007608031C760FFA027708031C770FFB026A
:100354000001031C0130A002C029F8077508031826
:10036400750FF90776080318760FFA07770803184C
:10037400770FFB07000103180130A007F10DFC0BF8
:100384009429700DF80DF90DFA0DFB0DA00D7408EC
:10039400711CDE29F8027508031C750FF902760832
:1003A400031C760FFA027708031C770FFB02000187
:1003B400031C0130A002EF29F80775080318750F14
:1003C400F90776080318760FFA0777080318770FEA
:1003D400FB07000103180130A007F00D0730FC00F3
:1003E400700DF80DF90DFA0DFB0DA00D7408701CBD
:1003F4000D2AF8027508031C750FF9027608031C10
:10040400760FFA027708031C770FFB020001031C26
:100414000130A0021E2AF80775080318750FF907A2
:1004240076080318760FFA0777080318770FFB0787
:10043400000103180130A007F00DFC0BF22970181D
:10044400312A7408F80775080318750FF907760838
:100454000318760FFA0777080318770FFB070800CD
:0E0464008312031327088A002608820008006E
:10047200831203137408003A031D542A7508003AC4
:10048200031D542A7608003A031D542A7708003ABD
:10049200031D542AFF30F000FF30F1007F30F200DC
:1004A200FF30F300EF2A8312031377080319E32ABC
:1004B20073080319E62A720876068039FA00F217E1
:1004C200F617A1017208F8007108FC007008FD001F
:1004D2007408FD027508031C750FFC027608031CE4
:1004E200760FF802F801FC01FD01031C7F2A0310BC
:1004F200F20CF10CF00CF80C0130A1007708F302B9
:10050200031C892A7E302107F3070318E92A8E2A61
:100512007E302107F307031CEC2A1830FA07FD0D81
:10052200FC0DF80DF00DF10DF20DA10D7408F002A5
:100532007508031C750FF1027608031C760FF20290
:10054200760DA104211CA72A7D14B22A7408F00793
:1005520075080318750FF10776080318760AF20773
:100562007D10FA031F307A05031D902A7B1B7D1C28
:10057200D92A0310F00DF10DF20DA10D7408F0024D
:100582007508031C750FF1027608031C760FF20240
:10059200760D21040139FD070318FC0A0319F80A34
:1005A200031DD92AF80CFC0CFD0CF30A0319E92AE5
:1005B200FA1FF8137808F2007C08F1007D08F000B9
:1005C2000030EE2A01303320EE2A02301320EE2AC8
:0E05D20004301A20EE2A083003200000080032
:1005E000831203132A08F0002B08F1002C08F200F4
:1005F0002D08F3004030F4000630F500F601F70155
:100600008320B430F400F501F601F701BA20F4308C
:100610007007B00071080318013E013EB100AE0141
:10062000AF018030F00080302F067002031D1A2BBE
:100630002E08323C031C2C2B06143008B200310863
:10064000B300362006108830B2001330B3003620D5
:0A065000AE0A0319AF0A112B0800CF
:10065A00831203137008F8007108F000F101F20127
:10066A00F301FB01FC019630F300FA017008F10076
:0C067A007808F000F801F201542008009C
:1006860083120313FB01FC01FA0173080319822B81
:10069600F2178E30F302F31B532B0319532B852BC2
:1006A600F309F30A08307302031C682BF300F10DFB
:1006B6007208F100F20108307302031C682BF10D79
:1006C600F1017308031D0310702B73080319702BB7
:1006D6000310F20CF10CF30B6B2B7B1B711C7A2BAA
:1006E600031C7A2BF10A0319F20AF21B912BFA1F4B
:1006F600942BF209F109F10A0319F20A942BF2017B
:10070600F101942B7B14FB1F972BF201FA1F972BF9
:10071600FF30F200F100FA0DF20C972B0130FC00CD
:10072600992B0030FC00992BFF30FC00FC080319C4
:0E0736009D2B26207108F0007208F1000800CB
:10074400831203130808F200F20CF213F20CF213F2
:10075400F20CF213F20CF213BC2B0808F000F00CAC
:10076400F013F00CF013F00CF013F00CF01370080D
:0E0774008500C02B7208013A0319AF2B080054
:10078200831203132208AA002308AB000030AB1B1C
:10079200FF30AC00AD00F02224080319D52B053040
:1007A200A2070318A30AD92B0530A202031CA30334
:1007B20000302306031DDF2BB4302206031DE22B7B
:1007C200A40100302306031DE82B00302206031D7E
:0807D200EC2B0130A40008002B
:1007DA00831203138F018E0108140630FD00FD0BEE
:1007EA00F42B000008108818FB2BF82B1014881C17
:1007FA00FF2BFC2B10100F08F100F0010E08F0047B
:10080A000030F1047008A8007108A9002D23AE3049
:10081A00F4004730F5006B30F6008430F7003922D7
:10082A0043237008A8007108A9007008013EF3006C
:10083A0000300318013E7107F4007308F1007408D0
:10084A00F200F10DF20D71107108A8007208A900EA
:10085A0000307202031D332CFA3071020318372C50
:0A086A002808A500250886000800F4
:100874008316031788018901031385018601023059
:1008840088008312850110309000693086001F3083
:10089400FB007130FC001E30FD00FD0B4F2CFC0BE7
:0A08A4004F2CFB0B4F2C0000080046
:1008AE0032228A110A128000840AA60A0319A70AA4
:0808BE00F003031D572C080094
:1008C60083120313A201A3010130A4003A24C12319
:0808D600A223ED236A2C6E2C15
:04400E00F22F000786
:00000001FF
