:1000000000308A001B28000023308400831300087E
:10001000031918280F30F800F701F70B0D28F80B1B
:100020000C288F30F700F70B13280000800B0A28EC
:100030008A110A124728840183131F30830583160F
:1000400003178715E1300313990004309A00A63096
:100050009800903083129800831603170908C0395E
:10006000890003131F129F120030031788008312A8
:10007000870188018901003083160313860001304F
:100080008312A1070230A200FA30A3000428A20BB9
:10009000442821080A3C031CA10121080C1E4E28FB
:1000A00099002108F63E031874280A3E772840304C
:1000B00086007428793086007428243086007428DD
:1000C000303086007428193086007428123086007B
:1000D00074280230860074287830860074288601DF
:1000E000742818308600742883163F2863000A108D
:1000F0008A100A11820757285A285D286028632829
:0A010000662869286C286F28712812
:04400E00E72FFF3F5A
:00000001FF
;PIC16F887
;CRC=69EE  CREATED="22-nov.-18 19:22"
