:1000000000308A001B28000023308400831300087E
:10001000031918280F30F800F701F70B0D28F80B1B
:100020000C288F30F700F70B13280000800B0A28EC
:100030008A110A124928840183131F30830583160D
:1000400003178715E1300313990004309A00A63096
:100050009800903083129800831603170908C0395E
:10006000890003131F129F120030031788008312A8
:1000700087018801890100308316031388008312E9
:10008000861F4F280130A1070230A200FA30A300DA
:100090000428A20B462821080A3C031CA1012108C0
:1000A0000C1E502899002108F63E031891280A3E9C
:1000B0009328403086009128831688017930831276
:1000C00088009128831688012430831288009128A3
:1000D00083168801303083128800912883168801A6
:1000E00019308312880091288316880112308312F8
:1000F0008800912883168801023083128800912895
:10010000831688017830831288009128831688012D
:100110008312880191288316880118308312880081
:100120009128402863000A108A100A118207592872
:100130005C28622868286E2874287A2880288628F7
:020140008B280A
:04400E00E72FFF3F5A
:00000001FF
;PIC16F887
;CRC=EA52  CREATED="22-nov.-18 19:41"
