:0200000089284D
:1000060083160313981809280000032883122C0866
:040016009900080045
:0E001A008312031322088A00210882000800C6
:1000280083120313F8010830FC00700DF80D7408F2
:10003800F80203182128F8070310F00DFC0B192803
:020048000800AE
:10004A000D208A110A128000840AA10A0319A20A41
:08005A00F003031D2528080036
:1000620083120313AA0103302A0203183F282A0825
:100072002907840020308000AA0A34282A08290788
:1000820084008001AA032A082907AB000A30F40081
:100092002808F00014207808F0003030F0072B0810
:1000A2008400700880000A30F4002808F000142050
:1000B2007008A8007008003A031D60286228AA038D
:0400C20044280800C6
:1000C60083120313AA01280884000008A90029083E
:1000D600003A031978282908AC000320AA0A2A083E
:0C00E600280784000008A9006A28080010
:1000F200831603139816903083129800831687177D
:10010200071383128C1E88281A08F0008228080020
:10011200413083120313A00033308316990018155F
:1001220079202008A8002330A90031202008A80047
:1001320063200630FB001330FC00AD30FD00FD0BE8
:10014200A028FC0BA028FB0BA02800000000972889
:02015200A928DA
:04400E00F22F000786
:00000001FF
