:020000002628B0
:0E0006008312031322088A00210882000800DA
:1000140003208A110A128000840AA10A0319A20A81
:08002400F003031D0A28080087
:10002C008316031398169030831298008316871743
:10003C00071383128C1E25281A08F0001F280800AD
:10004C0083120313A0013330831699001815162060
:10005C0083168601831286010230FB000430FC00FB
:10006C00BA30FD00FD0B3828FC0B3828FB0B382868
:10007C000000200886001A30FC00F830FD00FD0B53
:10008C004528FC0B45280000A00A10302002031C58
:08009C005028A0013F28512863
:04400E00F22F000786
:00000001FF
