:020000001628C0
:0E0006008312031322088A00210882000800DA
:1000140003208A110A128000840AA10A0319A20A81
:08002400F003031D0A28080087
:10002C0083120313A00183168601831286018316A3
:10003C0087013830831287000230FB000430FC004B
:10004C00BA30FD00FD0B2828FC0B2828FB0B2828B8
:10005C000000F53086001A30FC00F830FD00FD0B76
:10006C003528FC0B35280000A00A10302002031C98
:08007C004028A0012F284128B3
:04400E00F22F000786
:00000001FF
