:02000000292AAB
:1000060083120313AE0CAD0CAE13AE0CAD0CAE13D7
:10001600AE0CAD0CAE13AE0CAD0CAE132D08F0004D
:100026002E08F1000130AD02031CAE037008710406
:0C00360003192028000000001128080019
:0E0042008312031322088A002108820008009E
:1000500083120313FB01FA01F901F801A001730DEA
:10006000F80D7408F8027508031C750FF90276087C
:10007000031C760FFA027708031C770FFB020001BE
:10008000031C0130A002F30D0730FC00730DF80DC6
:10009000F90DFA0DFB0DA00D7408731C6128F80210
:1000A0007508031C750FF9027608031C760FFA0217
:1000B0007708031C770FFB020001031C0130A0022C
:1000C0007228F80775080318750FF90776080318E2
:1000D000760FFA0777080318770FFB07000103185C
:1000E0000130A007F30DFC0B4628720DF80DF90D39
:1000F000FA0DFB0DA00D7408731C9028F80275080A
:10010000031C750FF9027608031C760FFA027708B4
:10011000031C770FFB020001031C0130A002A12881
:10012000F80775080318750FF90776080318760F96
:10013000FA0777080318770FFB070001031801304F
:10014000A007F20D0730FC00720DF80DF90DFA0D45
:10015000FB0DA00D7408721CBF28F8027508031C63
:10016000750FF9027608031C760FFA027708031C54
:10017000770FFB020001031C0130A002D028F80712
:1001800075080318750FF90776080318760FFA0734
:1001900077080318770FFB07000103180130A00749
:1001A000F20DFC0BA428710DF80DF90DFA0DFB0DE5
:1001B000A00D7408721CEE28F8027508031C750F58
:1001C000F9027608031C760FFA027708031C770FF2
:1001D000FB020001031C0130A002FF28F80775088C
:1001E0000318750FF90776080318760FFA077708D2
:1001F0000318770FFB07000103180130A007F10D6A
:100200000730FC00710DF80DF90DFA0DFB0DA00D76
:100210007408711C1D29F8027508031C750FF9027A
:100220007608031C760FFA027708031C770FFB028F
:100230000001031C0130A0022E29F80775080318DD
:10024000750FF90776080318760FFA077708031871
:10025000770FFB07000103180130A007F10DFC0B1D
:100260000229700DF80DF90DFA0DFB0DA00D7408A3
:10027000711C4C29F8027508031C750FF9027608E9
:10028000031C760FFA027708031C770FFB020001AC
:10029000031C0130A0025D29F80775080318750FCB
:1002A000F90776080318760FFA0777080318770F0F
:1002B000FB07000103180130A007F00D0730FC0018
:1002C000700DF80DF90DFA0DFB0DA00D7408701CE2
:1002D0007B29F8027508031C750FF9027608031CC8
:1002E000760FFA027708031C770FFB020001031C4C
:1002F0000130A0028C29F80775080318750FF9075B
:1003000076080318760FFA0777080318770FFB07AC
:10031000000103180130A007F00DFC0B60297018D4
:100320009F297408F80775080318750FF9077608F0
:100330000318760FFA0777080318770FFB070800F2
:10034000831203132230FC00F801F901FA01FB01CA
:10035000FC030319D6290310FB0CFA0CF90CF80C5A
:10036000F30CF20CF10CF00C031CA829FC0303198C
:10037000C8297408F80775080318750FF907760877
:100380000318760FFA0777080318770FFB07AC29D5
:100390007408F80775080318750FF907760803182D
:0E03A000760FFA0777080318770FFB0708009F
:1003AE0021208A110A128000840AA10A0319A20AC6
:0803BE00F003031DD72908001C
:1003C600831203132508F0002608F1002708F2001F
:1003D6002808F3004030F4000630F500F601F70176
:1003E600A021B430F400F501F601F7012820F4301D
:1003F6007007AB0071080318013E013EAC00A9016D
:10040600AA018030F00080302A067002031D0D2AF2
:100416002908323C031C1F2A06142B08AD002C08A1
:10042600AE00032006108830AD001330AE00032066
:0A043600A90A0319AA0A042A080003
:1004400083160313860103178901831203138601A0
:020450000800A2
:1004520083120313A301A4012022A301A40180306B
:10046200F000803024067002031D392A2308B43CB0
:10047200031C6F2A2308A5002408A6000030A61B2F
:10048200FF30A700A800E32100302406031D4B2AF9
:10049200B4302306031D6A2AB430A300A4018030BD
:1004A2002406F00080307002031D592A0030230216
:1004B200031C6A2A2308A5002408A6000030A61BF4
:1004C200FF30A700A800E3210A30A302031CA40303
:1004D200502A0A30A3070318A40A302AA301A40150
:0404E2002E2A722A22
:04400E00F22F000786
:00000001FF
