:02000000A22A32
:1000060083120313AF0CAE0CAF13AF0CAE0CAF13D1
:10001600AF0CAE0CAF13AF0CAE0CAF132E08F00046
:100026002F08F1000130AE02031CAF037008710403
:0C00360003192028000000001128080019
:10004200831203132230FC00F801F901FA01FB01CB
:10005200FC03031957280310FB0CFA0CF90CF80CDB
:10006200F30CF20CF10CF00C031C2928FC0303190D
:1000720049287408F80775080318750FF9077608F8
:100082000318760FFA0777080318770FFB072D2856
:100092007408F80775080318750FF907760803182E
:0E00A200760FFA0777080318770FFB070800A0
:1000B00083120313FB01FA01F901F801A001730D8A
:1000C000F80D7408F8027508031C750FF90276081C
:1000D000031C760FFA027708031C770FFB0200015E
:1000E000031C0130A002F30D0730FC00730DF80D66
:1000F000F90DFA0DFB0DA00D7408731C9128F80280
:100100007508031C750FF9027608031C760FFA02B6
:100110007708031C770FFB020001031C0130A002CB
:10012000A228F80775080318750FF9077608031851
:10013000760FFA0777080318770FFB0700010318FB
:100140000130A007F30DFC0B7628720DF80DF90DA8
:10015000FA0DFB0DA00D7408731CC028F802750879
:10016000031C750FF9027608031C760FFA02770854
:10017000031C770FFB020001031C0130A002D128F1
:10018000F80775080318750FF90776080318760F36
:10019000FA0777080318770FFB07000103180130EF
:1001A000A007F20D0730FC00720DF80DF90DFA0DE5
:1001B000FB0DA00D7408721CEF28F8027508031CD3
:1001C000750FF9027608031C760FFA027708031CF4
:1001D000770FFB020001031C0130A0020029F80781
:1001E00075080318750FF90776080318760FFA07D4
:1001F00077080318770FFB07000103180130A007E9
:10020000F20DFC0BD428710DF80DF90DFA0DFB0D54
:10021000A00D7408721C1E29F8027508031C750FC6
:10022000F9027608031C760FFA027708031C770F91
:10023000FB020001031C0130A0022F29F8077508FA
:100240000318750FF90776080318760FFA07770871
:100250000318770FFB07000103180130A007F10D09
:100260000730FC00710DF80DF90DFA0DFB0DA00D16
:100270007408711C4D29F8027508031C750FF902EA
:100280007608031C760FFA027708031C770FFB022F
:100290000001031C0130A0025E29F807750803184D
:1002A000750FF90776080318760FFA077708031811
:1002B000770FFB07000103180130A007F10DFC0BBD
:1002C0003229700DF80DF90DFA0DFB0DA00D740813
:1002D000711C7C29F8027508031C750FF902760859
:1002E000031C760FFA027708031C770FFB0200014C
:1002F000031C0130A0028D29F80775080318750F3B
:10030000F90776080318760FFA0777080318770FAE
:10031000FB07000103180130A007F00D0730FC00B7
:10032000700DF80DF90DFA0DFB0DA00D7408701C81
:10033000AB29F8027508031C750FF9027608031C37
:10034000760FFA027708031C770FFB020001031CEB
:100350000130A002BC29F80775080318750FF907CA
:1003600076080318760FFA0777080318770FFB074C
:10037000000103180130A007F00DFC0B9029701844
:10038000CF297408F80775080318750FF907760860
:100390000318760FFA0777080318770FFB07080092
:0E03A0008312031325088A0024088200080037
:1003AE00831203132608F0002708F1002808F20034
:1003BE002908F3004030F4000630F500F601F7018D
:1003CE002120B430F400F501F601F7015820F43085
:1003DE007007AC0071080318013E013EAD00AA0182
:1003EE00AB018030F00080302B067002031D012A15
:1003FE002A08323C031C132A06142C08AE002D08C2
:10040E00AF00032006103830AE004A30AF00032094
:0A041E00AA0A0319AB0AF829080026
:10042800831203132108A6002208A7000030A71B87
:10043800FF30A800A900D7210430FB000C30FC00D5
:100448003330FD00FD0B262AFC0B262AFB0B262A3F
:100458000000000023080319362A0530A1070318F5
:10046800A20A3A2A0530A102031CA2030030220680
:10047800031D402AB4302106031D432AA30100307E
:100488002206031D492A00302106031D4D2A01308A
:04049800A3000800B5
:10049C00043083120313F0000808F200F301700813
:1004AC0003195D2AF20DF30D7210FF3E562A852AB0
:1004BC000808F000F00D7010F00D7010F00D7010B9
:1004CC00F00D701070088500952A0808F000F00DEA
:1004DC007010F00D7010F00D7010F00D70107008A1
:1004EC0085000330FB000830FC007730FD00FD0B6D
:1004FC007D2AFC0B7D2AFB0B7D2A8501952A003079
:10050C007306031D8B2A0130720603195E2A003014
:10051C007306031D932A0130720603196B2A080017
:10052C00D0218A110A128000840AA40A0319A50A90
:08053C00F003031D962A0800DC
:1005440083120313A101A2010130A3008316031730
:10055400880103138501FF3088008312850114226A
:060564004E22B12AB42A68
:04400E00F22F000786
:00000001FF
