:02000000CD2A07
:1000060083120313AF0CAE0CAF13AF0CAE0CAF13D1
:10001600AF0CAE0CAF13AF0CAE0CAF132E08F00046
:100026002F08F1000130AE02031CAF037008710403
:0C00360003192028000000001128080019
:1000420083120313FB01FA01F901F801A001730DF8
:10005200F80D7408F8027508031C750FF90276088A
:10006200031C760FFA027708031C770FFB020001CC
:10007200031C0130A002F30D0730FC00730DF80DD4
:10008200F90DFA0DFB0DA00D7408731C5A28F80225
:100092007508031C750FF9027608031C760FFA0225
:1000A2007708031C770FFB020001031C0130A0023A
:1000B2006B28F80775080318750FF90776080318F7
:1000C200760FFA0777080318770FFB07000103186A
:1000D2000130A007F30DFC0B3F28720DF80DF90D4E
:1000E200FA0DFB0DA00D7408731C8928F80275081F
:1000F200031C750FF9027608031C760FFA027708C3
:10010200031C770FFB020001031C0130A0029A2896
:10011200F80775080318750FF90776080318760FA4
:10012200FA0777080318770FFB070001031801305D
:10013200A007F20D0730FC00720DF80DF90DFA0D53
:10014200FB0DA00D7408721CB828F8027508031C78
:10015200750FF9027608031C760FFA027708031C62
:10016200770FFB020001031C0130A002C928F80727
:1001720075080318750FF90776080318760FFA0742
:1001820077080318770FFB07000103180130A00757
:10019200F20DFC0B9D28710DF80DF90DFA0DFB0DFA
:1001A200A00D7408721CE728F8027508031C750F6D
:1001B200F9027608031C760FFA027708031C770F00
:1001C200FB020001031C0130A002F828F8077508A1
:1001D2000318750FF90776080318760FFA077708E0
:1001E2000318770FFB07000103180130A007F10D78
:1001F2000730FC00710DF80DF90DFA0DFB0DA00D85
:100202007408711C1629F8027508031C750FF9028F
:100212007608031C760FFA027708031C770FFB029D
:100222000001031C0130A0022729F80775080318F2
:10023200750FF90776080318760FFA07770803187F
:10024200770FFB07000103180130A007F10DFC0B2B
:10025200FB28700DF80DF90DFA0DFB0DA00D7408B9
:10026200711C4529F8027508031C750FF9027608FE
:10027200031C760FFA027708031C770FFB020001BA
:10028200031C0130A0025629F80775080318750FE0
:10029200F90776080318760FFA0777080318770F1D
:1002A200FB07000103180130A007F00D0730FC0026
:1002B200700DF80DF90DFA0DFB0DA00D7408701CF0
:1002C2007429F8027508031C750FF9027608031CDD
:1002D200760FFA027708031C770FFB020001031C5A
:1002E2000130A0028529F80775080318750FF90770
:1002F20076080318760FFA0777080318770FFB07BB
:10030200000103180130A007F00DFC0B59297018E9
:1003120098297408F80775080318750FF907760805
:100322000318760FFA0777080318770FFB07080000
:10033200831203132230FC00F801F901FA01FB01D8
:10034200FC030319CF290310FB0CFA0CF90CF80C6F
:10035200F30CF20CF10CF00C031CA129FC030319A1
:10036200C1297408F80775080318750FF90776088C
:100372000318760FFA0777080318770FFB07A529EA
:100382007408F80775080318750FF907760803183B
:0E039200760FFA0777080318770FFB070800AD
:0E03A0008312031325088A0024088200080037
:1003AE00831203132608F0002708F1002808F20034
:1003BE002908F3004030F4000630F500F601F7018D
:1003CE009921B430F400F501F601F7012120F43043
:1003DE007007AC0071080318013E013EAD00AA0182
:1003EE00AB018030F00080302B067002031D012A15
:1003FE002A08323C031C132A06142C08AE002D08C2
:10040E00AF00032006108830AE001330AF0003207B
:0A041E00AA0A0319AB0AF829080026
:1004280083160317880103138501FF3088008601AE
:10043800031789018312031386018501103083167F
:1004480086001030831290000A3085000B30FB00C4
:100458002630FC005D30FD00FD0B302AFC0B302AF5
:10046800FB0B302A0000000085013430FC00F1301D
:10047800FD00FD0B3D2AFC0B3D2A00000000F53075
:1004880085000B30FB002630FC005D30FD00FD0BC5
:100498004B2AFC0B4B2AFB0B4B2A00000000850162
:1004A8003430FC00F130FD00FD0B582AFC0B582AB3
:1004B80000000000063085000B30FB002630FC00F1
:1004C8005D30FD00FD0B662AFC0B662AFB0B662AD5
:1004D8000000000085013430FC00F130FD00FD0B08
:1004E800732AFC0B732A00000000F93085000B30DA
:1004F800FB002630FC005D30FD00FD0B812AFC0B63
:10050800812AFB0B812A0000000085013430FC00A1
:10051800F130FD00FD0B8E2AFC0B8E2A0000000036
:020528000800C9
:10052A00831203132108A6002208A7000030A71B84
:10053A00FF30A800A900D72123080319A92A0530EA
:10054A00A1070318A20AAD2A0530A102031CA203BF
:10055A0000302206031DB32AB4302106031DB62A31
:10056A00A30100302206031DBC2A00302106031D08
:08057A00C02A0130A3000800B3
:10058200D0218A110A128000840AA40A0319A50A3A
:08059200F003031DC12A08005B
:10059A0083120313A101A2010130A30014229522A0
:0405AA00D42AD62A4F
:04400E00F22F000786
:00000001FF
