:020000005E2878
:0E0006008312031321088A00200882000800DC
:10001400043083120313F0000808F200F30170089F
:1000240003191928F20DF30D7210FF3E122841280E
:100034000808F000F00D7010F00D7010F00D701045
:10004400F00D70107008850051280808F000F00DBC
:100054007010F00D7010F00D7010F00D701070082D
:1000640085000330FB000830FC007730FD00FD0BF9
:100074003928FC0B3928FB0B39288501512800301D
:100084007306031D47280130720603191A2800302D
:100094007306031D4F280130720603192728080030
:1000A40003208A110A128000840AA00A0319A10AF3
:0800B400F003031D52280800AF
:1000BC0083160317880103138501FF308800831210
:0800CC0085010A20672869285C
:04400E00F22F000786
:00000001FF
