:020000003A289C
:0E0006008312031321088A00200882000800DC
:1000140003208A110A128000840AA00A0319A10A83
:08002400F003031D0A28080087
:10002C008316031398181C28000016288312220824
:04003C00990008001F
:100040008316031788018901031385015030860048
:04005000880108001B
:10005400831603139816903083129800831687171B
:10006400071383128C1E39281A08F000332808005D
:1000740020203330990018152A200330FB00083063
:10008400FC007730FD00FD0B4528FC0B4528FB0BDD
:0C00940045283230A20016204B284F28CF
:04400E00F22F000786
:00000001FF
