:020000004C288A
:0E0006008312031321088A00200882000800DC
:10001400831603139816903083129800831687175B
:10002400071383128C1E19281A08F00013280800DD
:100034008316031788018901031385015030860054
:040044008801080027
:100048008316031398182A280000242883122308EB
:040058009900080003
:0E005C000030831203138C1A0130F0000800EC
:10006A00831203131A08F100981C3D281812181657
:06007A007108F00008000F
:1000800003208A110A128000840AA00A0319A10A17
:08009000F003031D40280800E5
:10009800333083160313990018150A201A200230EA
:1000A8008312A3002420061F5F28061F5C285928F6
:1000B8000130A30024202E207008013A031D8C284B
:1000C80035207008A2007008A30024202208013CF3
:1000D80003188C2808150630FB001330FC00AD30DF
:1000E800FD00FD0B7528FC0B7528FB0B752800001F
:1000F800000008110630FB001330FC00AD30FD0095
:10010800FD0B8428FC0B8428FB0B842800000000CE
:0401180053288D28B3
:04400E00F22F000786
:00000001FF
