:020000001729BE
:1000060083120313F801F9011030FC00710DF80D8D
:10001600F90D7408F8027508031C750FF902031828
:100026001B287408F80775080318750FF9070310DD
:0A003600F00DF10DFC0B0928080085
:1000400083120313CC0105304C0203182E284C08F0
:100050004B07840020308000CC0A23284C084B0733
:1000600084008001CC034C084B07CD000A30F4001B
:10007000F5014908F0004A08F10003207808F00073
:100080007908F1003030F0074D08840070088000D6
:100090000A30F400F5014908F0004A08F100032095
:1000A0007008C9007108CA0000307106031D5A2883
:1000B00000307006031D5D285F28CC03332808003C
:0E00C000831203133F088A003E0882000800E6
:1000CE008316031398186D280000672883124908B9
:0400DE00990008007D
:1000E200831603139816903083129800831687178D
:1000F200071383128C1E80281A08F0007A28080041
:1001020083120313C501C6014008C7004108C80095
:1001120080304106F00080307002031D92280030CA
:1001220040020318A0280130C5000030C600400874
:10013200003CC7004108031C013EC801C802470831
:10014200C9004808CA004208CB0020200630C3007C
:100152000030C4004408003C031DB1284308003CA1
:100162000318CC2843084207F20001304302F00092
:100172000030031C013E4402F10070084207840073
:100182000008F00072088400700880000130C30289
:10019200031CC403AB2842088400203080004508B9
:1001A20046040319EA28C301C40143084207840034
:1001B2000008203A031DE128C30A0319C40AD628FD
:1001C2000130C302031CC4034308420784002D30DC
:0401D20080000800A1
:1001D60060208A110A128000840ABE0A0319BF0A27
:0801E600F003031DEB280800E3
:1001EE0083120313C201400884000008C1004108B5
:1001FE00003A03190C294108C9006720C20A4208B7
:0C020E00400784000008C100FE28080022
:10021A00831603178801890103138501503086006C
:04022A00880108003F
:10022E0083120313A001A101A201A301A401A50140
:10023E000B30A6000230A7006830A8006F30A9006E
:10024E006C30AA006130AB002030AC006330AD00E2
:10025E006F30AE006D30AF006F30B0002030B100A7
:10026E006530B2007330B3002030B4006530B50095
:10027E007330B6007430B7006130B8007330B90017
:10028E00BA010A30BB000D30BC00BD010D21333068
:10029E009900181571200330FB000830FC007730F0
:1002AE00FD00FD0B5829FC0B5829FB0B5829283053
:1002BE00C000F7202608C0002708C1002030C20069
:1002CE0081202030C000F7203B30C000F7205E298F
:0202DE006F2986
:04400E00F22F000786
:00000001FF
