:02000000A42931
:100006007B15FB1F0D280130F300F201F101F00111
:08001600FA0DF20CFF300800A6
:08001E00FA1FF2130030080084
:0E002600F201F101F001F801F30100300800D1
:06003400FB15FF3008007F
:10003A00FB14FB1F2728FF30F300F200F100F00049
:08004A00FA0DF20CFF30080072
:100052007B14FB1F3428F201FA1FFF30F200F1007B
:0A006200F000FA0DF20CFF30080068
:0E006C008312031322088A0021088200080074
:10007A00A0017208031D52287108F2007008F100ED
:10008A00F001A0157208031D52287108F200F1014F
:10009A00A01120167208031960282008F302031D14
:1000AA00031C64280310F21B6828F00DF10DF20DF1
:1000BA00F30B582864280130FC0013206B28023007
:0E00CA00FC0003206B280430FC000F2008000F
:1000D80083120313FB01FC01FA0173080319AB280F
:1000E800F2178E30F302F31B7C2803197C28AE2804
:1000F800F309F30A08307302031C9128F300F10D89
:100108007208F100F20108307302031C9128F10D06
:10011800F1017308031D031099287308031999281E
:100128000310F20CF10CF30B94287B1B711CA32811
:10013800031CA328F10A0319F20AF21BBA28FA1FB2
:10014800BD28F209F109F10A0319F20ABD28F201E2
:10015800F101BD287B14FB1FC028F201FA1FC0283B
:10016800FF30F200F100FA0DF20CC0280130FC005B
:10017800C2280030FC00C228FF30FC00FC0803192C
:0E018800C62829207108F0007208F100080056
:10019600831203137408003A031DE6287508003A13
:1001A600031DE6287608003A031DE6287708003A7C
:1001B600031DE628FF30F000FF30F1007F30F2002B
:1001C600FF30F30081298312031377080319752979
:1001D600730803197829720876068039FA00F2172F
:1001E600F617A0017208F8007108FC007008FD00FF
:1001F6007408FD027508031C750FFC027608031CC3
:10020600760FF802F801FC01FD01031C1129031009
:10021600F20CF10CF00CF80C0130A0007708F30298
:10022600031C1B297E302007F30703187B2920298E
:100236007E302007F307031C7E291830FA07FD0DD0
:10024600FC0DF80DF00DF10DF20DA00D7408F00285
:100256007508031C750FF1027608031C760FF2026F
:10026600760DA004201C39297D1444297408F00752
:1002760075080318750FF10776080318760AF20752
:100286007D10FA031F307A05031D22297B1B7D1C76
:100296006B290310F00DF10DF20DA00D7408F0029C
:1002A6007508031C750FF1027608031C760FF2021F
:1002B600760D20040139FD070318FC0A0319F80A14
:1002C600031D6B29F80CFC0CFD0CF30A03197B29A2
:1002D600FA1FF8137808F2007C08F1007D08F00098
:1002E6000030802901301A2080290230132080290D
:0E02F60004301D20802908300320000008007D
:10030400831203137008F8007108F000F101F20180
:10031400F301FB01FC019630F300FA017008F100CF
:0C0324007808F000F801F2013D2008000C
:1003300036208A110A128000840AA10A0319A20A2F
:08034000F003031D98290800D9
:100348008316031788018901031385018312850128
:1003580086011030831686001F30FB007130FC00C8
:100368001E30FD00FD0BB629FC0BB629FB0BB62988
:1003780000001030831290008F018E0106140630A1
:10038800FD00FD0BC52900000610061ACC29C92955
:100398001014061ED029CD2910100F08F100F00105
:1003A8000E08F0040030F1048221AE30F40047302A
:1003B800F5006B30F6008430F700CB206C20700815
:1003C800013EF30000300318013E7107F400730882
:1003D800F0007408F100F00DF10D70107008850040
:0403E800C029F5290A
:04400E00F22F000786
:00000001FF
